:100000000C9462000C948A000C948A000C948A0070
:100010000C948A000C948A000C948A000C948A0038
:100020000C948A000C948A000C948A000C948A0028
:100030000C948A000C948A000C948A000C948A0018
:100040000C9410060C948A000C948A000C948A007C
:100050000C948A000C948A000C948A000C948A00F8
:100060000C945A060C948A00000000002500280019
:100070002B0000000000240027002A0000000000E0
:1000800023002600290004040404040404040202DA
:100090000202020203030303030301020408102007
:1000A0004080010204081020010204081020000012
:1000B0000008000201000003040700000000000027
:1000C0000000AF0711241FBECFEFD8E0DEBFCDBFC9
:1000D00011E0A0E0B1E0ECE5F3E102C005900D9283
:1000E000AC36B107D9F722E0ACE6B1E001C01D9211
:1000F000A037B207E1F710E0C2E6D0E004C02197D4
:10010000FE010E94A609C136D107C9F70E94CF0798
:100110000C94AC090C94000008950895AF92BF921E
:10012000CF92DF92EF92FF920F931F93CF93DF93C3
:100130006C017B018B01040F151FEB015E01AE18F2
:10014000BF08C017D10759F06991D601ED91FC9114
:100150000190F081E02DC6010995892B79F7C50141
:10016000DF91CF911F910F91FF90EF90DF90CF9093
:10017000BF90AF900895833081F028F4813099F0DA
:100180008230A9F008958730A9F08830C9F0843012
:10019000B1F4809180008F7D03C0809180008F77C3
:1001A00080938000089584B58F7784BD089584B5C9
:1001B0008F7DFBCF8091B0008F778093B000089542
:1001C0008091B0008F7DF9CFCF93DF93E0EBF0E02B
:1001D0008491ECE9F0E0D491E8E8F0E0C491CC231C
:1001E000A1F081110E94BB00EC2FF0E0EE0FFF1F89
:1001F000E458FF4FA591B491EC91ED2381E090E09C
:1002000009F480E0DF91CF91089580E090E0FACF8B
:100210001F93CF93DF93282F30E0F901E255FF4F72
:100220008491F901E656FF4FD491F901EA57FF4F47
:10023000C491CC23A9F0162F81110E94BB00EC2F92
:10024000F0E0EE0FFF1FE859FF4FA591B4918FB773
:10025000F894EC91111108C0D095DE23DC938FBF88
:10026000DF91CF911F910895DE2BF8CF3FB7F8941F
:100270008091470290914802A0914902B0914A02B0
:1002800026B5A89B05C02F3F19F00196A11DB11DF1
:100290003FBFBA2FA92F982F8827BC01CD01620F2D
:1002A000711D811D911D42E0660F771F881F991FE8
:1002B0004A95D1F708958F929F92AF92BF92CF92B5
:1002C000DF92EF92FF924B015C010E9436016B01BD
:1002D0007C010E9436016C197D098E099F09683ED8
:1002E000734081059105A8F321E0821A9108A108C5
:1002F000B10888EEC80E83E0D81EE11CF11C811401
:100300009104A104B10429F7FF90EF90DF90CF9002
:10031000BF90AF909F908F9008952FB7F894609101
:1003200043027091440280914502909146022FBF92
:100330000895089585ED8093BC008091BC0084FDF4
:10034000FCCF1092530208952091D901260F332734
:10035000331F21323105ECF420915302FC0190E06F
:1003600080E0243069F082E00895A091D9012191C4
:10037000AC0147545E4FA40FB52FB11D2C930196CD
:10038000861798F38091D901680F6093D90180E0B6
:10039000089581E008950895E091570280915602F2
:1003A000E81730F4F0E0E756FE4F808190E00895C2
:1003B0008FEF9FEF089590915702809156022FEF93
:1003C0003FEF981748F4E92FF0E0E756FE4F208101
:1003D00030E09F5F90935702C901089580915602C3
:1003E00090915702891B990B0895CF92DF92EF925B
:1003F000FF920F931F93CF93DF937C01CB018A0170
:1004000020912002222389F0EB016B01C40ED51E3E
:10041000CC15DD0569F06991D701ED91FC91019052
:10042000F081E02DC7010995F3CF642F0E94A4014C
:10043000C801DF91CF911F910F91FF90EF90DF9056
:10044000CF900895CF93DF931F92CDB7DEB7698326
:10045000209120022223F9F020915402203258F0FA
:1004600021E030E0FC013383228390E080E00F90B4
:10047000DF91CF91089580915502E82FF0E0EF5D74
:10048000FD4F998190838F5F809355028093540232
:1004900081E090E0ECCF61E0CE0101960E94A401E2
:1004A000F7CFCF93FC01C48121E020932002C093B9
:1004B000410210925502109254028385682B88E500
:1004C00092E00E94220290915402913208F03FC0C3
:1004D000809153028111FCCF82E08093530281E02E
:1004E000809352028FEF80931F0210921E0290930E
:1004F0001D02A1E2B2E0EDEFF1E080E098132FC021
:100500001092FC018091FC01CC0FC82BC093FC0120
:1005100080915102813039F5109251028091FC0195
:100520008093BB008091BC0083FDF8CF85EC809365
:10053000BC00809153028230E1F380911F028F3F13
:1005400031F080911F02803211F080911F021092D1
:1005500055021092540210922002CF9108952D91CD
:1005600021938F5FCBCF85EEE2CF90E080E00895BE
:100570008F929F92AF92BF920F931F93CF93DF936F
:10058000CDB7DEB7A1970FB6F894DEBF0FBECDBFD3
:1005900019A2423008F44AE08E010F5D1F4F842EED
:1005A000912CB12CA12CA50194010E944D09E62F9C
:1005B000B901CA01EA3044F5E05DD801EE938D013E
:1005C000232B242B252B79F790E080E0109769F0FE
:1005D000FD0101900020E9F73197AF014A1B5B0B49
:1005E000BD0184E692E00E948E00A1960FB6F894B9
:1005F000DEBF0FBECDBFDF91CF911F910F91BF9096
:10060000AF909F908F900895E95CD7CFFC01019047
:100610000020E9F73197AF01481B590BBC0184E674
:1006200092E00C948E000F931F93CF938C01C62FF2
:100630000E9451026C2F6460C8010E9451026C2F0D
:100640006B7FC8010E94510283EC90E00197F1F7A3
:10065000CF911F910F9108950F931F93CF93DF9325
:100660008C01D62FC42F607F642B0E94130380E17E
:10067000D89FB00111246C2BC801DF91CF911F913D
:100680000F910C94130340E061E084E692E00E9435
:100690002C038BE39FE10197F1F70895CF93DF934C
:1006A0001092570210925602109255021092540264
:1006B0001092530281E0809352021092510261E045
:1006C00082E10E94080161E083E10E9408018091BB
:1006D000B9008E7F8093B9008091B9008D7F80939F
:1006E000B90088E48093B80085E48093BC008CE86E
:1006F00090E09093500280934F028DE890E09093A9
:100700004E0280934D021092690280916E028230F7
:1007100018F098E09093690280936C0262E370E0B5
:1007200080E090E00E945B0160916F0284E692E0BD
:100730000E94510268EE73E080E090E00E945B014D
:1007400060E384E692E00E941303CBE4D6E4CE019A
:100750000197F1F760E384E692E00E94130321978A
:10076000F1F760E384E692E00E94130383E592E0F0
:100770000197F1F760E284E692E00E941303609132
:100780006902606240E084E692E00E942C0384E00B
:1007900080936A0240E06CE084E692E00E942C03C1
:1007A0000E94430382E080936B0240E066E084E6AF
:1007B00092E00E942C0340E062E084E692E00E9416
:1007C0002C038BE39FE10197F1F7DF91CF9108951F
:1007D000CF93DF93CDB7DEB728970FB6F894DEBF7F
:1007E0000FBECDBF98E0E6E0F1E0DE01119601908A
:1007F0000D929A95E1F790916C02691710F06FEFE6
:10080000690F262F30E0220F331F41E050E04C0FDC
:100810005D1F240F351FF9016081680F606840E09B
:1008200084E692E028960FB6F894DEBF0FBECDBFE7
:10083000DF91CF910C942C0360E082E00E94E803EA
:100840008CE691E00E94060361E082E00E94E803EA
:100850008AE791E00C94060341E00E942C0381E0BA
:1008600090E00895CF92DF92EF92FF926C01990F82
:10087000EE08FF08F7FE16C041E06DE284E692E064
:100880000E942C0366277727CB016C197D098E09FE
:100890009F094AE00E94B8020196FF90EF90DF9016
:1008A000CF9008954AE0C701B601FF90EF90DF9026
:1008B000CF900C94B802CF93DF9380910001909178
:1008C000010101968436910591F190930101809385
:1008D000000160E080E00E94E803809100019091B7
:1008E0000101CAE0D0E0BE010E947E09CB010E9456
:1008F000320461E080E00E94E80380910001909161
:100900000101BE010E947E090E94320461E08DE077
:100910000E9408010E948D016093940170939501DB
:100920008093960190939701DF91CF910895109253
:10093000010110920001CDCF0E94C30823E030E0F6
:1009400040E050E00E941B09611571058105910589
:1009500099F48FE48093790180E2809387010E946B
:100960001C040E948D01609388017093890180931B
:100970008A0190938B01089561307105810591057D
:1009800029F480E2809379018FE4E7CF80E28093BD
:100990007901E3CFECE6F1E080E2819321E0EA37F0
:1009A000F207D9F7EAE7F1E080E2819391E0E838D5
:1009B000F907D9F70E9443038CE291E00E940603F5
:1009C00061E087E00E94E80383E090E00E94320447
:1009D00068EE73E080E090E00E945B0161E087E0F8
:1009E0000E94E80382E090E00E94320468EE73E027
:1009F00080E090E00E945B0161E087E00E94E803F4
:100A000081E090E00E94320468EE73E080E090E0C4
:100A10000E945B0110924C0210924B020E94430311
:100A200060E081E00E94E8038AE391E00E9406030F
:100A30000E948D01609388017093890180938A01DF
:100A400090938B010E948D016093900170939101AE
:100A500080939201909393010E945B040E949C04F6
:100A6000C9E7D1E010E20E94E4007C0190934C02BF
:100A700080934B020E948D0160938C0170938D01D5
:100A800080938E0190938F01EA94EF28E9F480918E
:100A9000980181116EC060E081E00E94E8038CE360
:100AA00091E00E94060361E081E00E94E8038AE38E
:100AB00091E00E94060381E08093980166E970E06E
:100AC00080E090E00E945B0180918C0190918D010B
:100AD000A0918E01B0918F014091880150918901C0
:100AE00060918A0170918B01841B950BA60BB70B4B
:100AF0008E3E9240A105B10514F00E949C048091A5
:100B00008C0190918D01A0918E01B0918F01409147
:100B10009001509191016091920170919301841B19
:100B2000950BA60BB70BECE6F1E084369105A10519
:100B3000B105ACF580918C0190918D01A0918E0151
:100B4000B0918F014091940150919501609196016F
:100B500070919701841B950BA60BB70B883C9105F0
:100B6000A105B1050CF47FCF60E08DE00E94080183
:100B70007ACF61E081E00E94E8038CE391E00E947B
:100B8000060360E081E00E94E8038AE391E00E94AE
:100B900006031092980192CFCE17DF0759F091818A
:100BA0009193868585879F3409F410838F34A1F74C
:100BB0001687F2CF80916C018F34A1F48091980157
:100BC000882381F00E945B0480916C018F3499F43A
:100BD0008091980181110FC010924C0210924B022B
:100BE0000E94790780917A018F3471F78091980182
:100BF0008111EACFE7CF80917A018F3421F480917F
:100C000098018111E9CF0E941C040E948D0160931C
:100C100090017093910180939201909393018ACFF8
:100C20001F920F920FB60F9211242F933F938F9321
:100C30009F93AF93BF938091430290914402A09100
:100C40004502B09146023091420223E0230F2D3736
:100C500058F50196A11DB11D2093420280934302D5
:100C600090934402A0934502B093460280914702BC
:100C700090914802A0914902B0914A020196A11DAB
:100C8000B11D8093470290934802A0934902B0930C
:100C90004A02BF91AF919F918F913F912F910F90F9
:100CA0000FBE0F901F90189526E8230F0296A11DE6
:100CB000B11DD2CF1F920F920FB60F9211242F9316
:100CC0003F934F935F936F937F938F939F93AF93D4
:100CD000BF93EF93FF938091B900887F803609F42A
:100CE0004AC0F0F5883209F4A7C018F5803109F43C
:100CF0009BC0B8F4882309F4F9C0883009F494C083
:100D0000FF91EF91BF91AF919F918F917F916F91E3
:100D10005F914F913F912F910F900FBE0F901F90B9
:100D20001895883109F488C0803251F780931F02EA
:100D300014C0803409F49DC040F48033B9F3883383
:100D4000F9F680931F0285ECB0C0803509F485C0A8
:100D5000883509F496C0883499F60E949A01D0CF5C
:100D6000883909F48CC038F5883729F050F4883672
:100D700011F0803729F683E0809353021092FB0133
:100D800057C0883809F47BC0803919F0803809F0E1
:100D9000B7CF8091FB01803208F071C0E091FB0178
:100DA00081E08E0F8093FB018091BB00F0E0E55263
:100DB000FE4F80833DC0803B39F0E0F4803A09F477
:100DC00079C0883A09F09CCF84E080935302109256
:100DD000DA011092D901E0914F02F0915002099589
:100DE0008091D90181110FC081E08093D9011092C7
:100DF000B90109C0803C09F4A6CF883C09F4A3CF0F
:100E0000883B09F07DCFE091DA0181E08E0F80937D
:100E1000DA01F0E0E754FE4F80818093BB009091AF
:100E2000DA018091D90129C08091FC018093BB0037
:100E300085EC8093BC0064CF90911E0280911D02CE
:100E4000981758F5E0911E0281E08E0F80931E02E4
:100E5000F0E0E350FE4F8081E9CFE0911E0281E097
:100E60008E0F80931E028091BB00F0E0E350FE4F96
:100E7000808390911E0280911D029817C8F285E828
:100E8000D8CFE0911E0281E08E0F80931E028091E8
:100E9000BB00F0E0E350FE4F80838091520281114D
:100EA0005CCF81E08093510284EA8093BC00109271
:100EB000530226CF85EC8093BC00109253028091A0
:100EC000FB01803230F4E091FB01F0E0E552FE4F8F
:100ED00010826091FB0170E0E0914D02F0914E02B2
:100EE0008BED91E009951092FB010ACF10921F0241
:100EF00034CF0E94430361E08DE00E94080160E06E
:100F000080E00E94E8038EE391E00E940603809156
:100F10000001909101010E94320461E080E00E9492
:100F2000E8038DE491E00E9406030E94E4009093A0
:100F30004C0280934B020197C1F78FEF9FEF909384
:100F400001018093000110924C0210924B0210920A
:100F5000980160E08DE00E9408010E94CA04E8E563
:100F6000F2E01382128288EE93E0A0E0B0E0848386
:100F70009583A683B78382E191E091838083E4E641
:100F8000F2E01382128284E291E09183808387E20F
:100F9000848380E1818782E0828713860895789434
:100FA00084B5826084BD84B5816084BD85B582606E
:100FB00085BD85B5816085BD80916E00816080931F
:100FC0006E00109281008091810082608093810088
:100FD0008091810081608093810080918000816098
:100FE000809380008091B10084608093B1008091F3
:100FF000B00081608093B00080917A00846080931B
:101000007A0080917A00826080937A0080917A00E1
:10101000816080937A0080917A00806880937A0062
:101020001092C100E7EAF0E02491E3E9F0E0849156
:10103000882399F090E0880F991FFC01EE58FF4F2C
:10104000A591B491FC01E859FF4F859194918FB718
:10105000F894EC91E22BEC938FBF0E944E030E9418
:101060004E0388E080936F0260E084E692E00E9485
:10107000510280E480937C0080917A0080648093A8
:101080007A0080917A0086FDFCCF80917800609193
:101090007900762F682F072E000C880B990B6115AD
:1010A00071058105910511F00E941209C0E0D0E0A0
:1010B00060E080E00E94E8038AE591E00E94060378
:1010C00061E082E00E94E8038DE491E00E94060363
:1010D0000E94E40090934C0280934B02019711F41C
:1010E0000E94CA04209721F30E940000E1CF8F9252
:1010F0009F92AF92BF92CF92DF92EF92FF92CF93E7
:10110000DF93EC01688179818A819B81611571058A
:101110008105910521F464E279ED8BE597E02DE1FD
:1011200033EF41E050E00E941B0949015A019B0145
:10113000AC01A7EAB1E40E943A096B017C01ACEE74
:10114000B4EFA50194010E944809C60ED71EE81EFF
:10115000F91EF7FE06C081E0C81AD108E10880E850
:10116000F80AC882D982EA82FB82C701B6019F775A
:10117000DF91CF91FF90EF90DF90CF90BF90AF9035
:101180009F908F9008958F929F92AF92BF92CF922F
:10119000DF92EF92FF9260910201709103018091C2
:1011A000040190910501611571058105910521F4F6
:1011B00064E279ED8BE597E02DE133EF41E050E01B
:1011C0000E941B0949015A019B01AC01A7EAB1E445
:1011D0000E943A096B017C01ACEEB4EFA5019401C9
:1011E0000E944809C60ED71EE81EF91EF7FE06C06B
:1011F00081E0C81AD108E10880E8F80AC09202012B
:10120000D0920301E0920401F0920501C701B601FA
:101210009F77FF90EF90DF90CF90BF90AF909F901F
:101220008F900895609302017093030180930401ED
:10123000909305010895052E97FB1EF400940E94DB
:10124000320957FD07D00E944D0907FC03D04EF428
:101250000C94320950954095309521953F4F4F4F52
:101260005F4F089590958095709561957F4F8F4F52
:101270009F4F08950E946F09A59F900DB49F900DF8
:10128000A49F800D911D11240895B7FF0C943A0975
:101290000E943A09821B930B0895A1E21A2EAA1B01
:1012A000BB1BFD010DC0AA1FBB1FEE1FFF1FA21716
:1012B000B307E407F50720F0A21BB30BE40BF50B13
:1012C000661F771F881F991F1A9469F7609570959C
:1012D000809590959B01AC01BD01CF010895A29F1F
:1012E000B001B39FC001A39F700D811D1124911DFA
:1012F000B29F700D811D1124911D089597FB072E3B
:1013000016F4009407D077FD09D00E94920907FCDB
:1013100005D03EF4909581959F4F08957095619505
:101320007F4F0895AA1BBB1B51E107C0AA1FBB1F1B
:10133000A617B70710F0A61BB70B881F991F5A9561
:10134000A9F780959095BC01CD010895EE0FFF1F80
:0C1350000590F491E02D0994F894FFCF73
:10135C00FFFF0100000000004000140054000000DA
:10136C0000002202F501B502CB01EE01DB01CC013C
:10137C00000000002C048E00B502990120202047AB
:10138C00657420526561647921003E00200047613C
:10139C006D654F76657220536372653A00507265C5
:1013AC00737320627574746F6E003D3D3D3D5649FC
:0C13BC00424543484B213D3D3D3D0000B3
:00000001FF
